
:1000000000000000000000000000000000000000F0
:1000100000000000000000000000000000000000E0
:1000200000000000000000000000000000000000D0
:1000300000000000000000000000000000000000C0
:1000400000000000000000000000000000000000B0
:1000500000000000000000000000000000000000A0
:100060000000000000000000000000000000000090
:100070000000000000000000000000000000000080
:100080000000000000000000000000000000000070
:100090000000000000000000000000000000000060
:1000A0000000000000000000000000000000000050
:1000B0000000000000000000000000000000000040
:1000C0000000000000000000000000000000000030
:1000D0000000000000000000000000000000000020
:1000E0000000000000000000000000000000000010
:1000F0000000000000000000000000000000000000
:10010000214601360121470136007EFE09D2190140
:100110002146017E17C20001FF5F16002148011928
:10012000194E79234623965778239EDA3F01B2CAA7
:100130003F0156702B5E712B722B732146013421C7
:1001400000000000000000000000000000000000AF
:10015000000000000000000000000000000000009F
:10016000000000000000000000000000000000008F
:10017000000000000000000000000000000000007F
:106B20000000000000000000A5CDFCF7FF7F000082
:106B300000000000000000000080020000000000D3
:106B4000E07F020000000000E07F02000000000083
:106B50000010000000000000000000000000000025
:106B600001000000000000000080020000000000A2
:106B700000D01B0000000000C1C41B00000000008A
:106B8000C1C41B0000000000001000000000000055
:106B9000008002000000000005000000000000006E
:106BA00000D01B0000000000005021000000000089
:106BB000CC48210000000000CC482100000000006B
:106BC000001000000000000000D01B0000000000CA
:106BD0000100000000000000005021000000000043
:106BE00000B021000000000088A821000000000083
:106BF000507E220000000000001000000000000095
:106C00000040210000000000030000000000000020
:106C10000000000000000000000000000000000074
:106C20000000000000000000000000000000000064
:106C30000000000000000000000000000000000054
:106C40000000000000000000000000000000000044
:106C50000000000000000000000000000000000034
:106C60000000000000000000000000000000000024
:106C70000000000000000000000000000000000014
:106C80000000000000000000000000000000000004
:106C900000000000000000000000000000000000F4
:106CA00000000000000000000000000000000000E4
:106CB00000000000000000000000000000000000D4
:106CC00000000000000000000000000000000000C4
:106CD00000000000000000000000000000000000B4
:106CE00000000000000000000000000000000000A4
:106CF0000000000000000000000000000000000094
:106D00000000000000000000000000000000000083
:106D10000000000000000000000000000000000073
:106D20000000000000000000000000000000000063
:106D30000000000000000000000000000000000053
:106D40000000000000000000000000000000000043
:106D50000000000000000000000000000000000033
:106D60000000000000000000000000000000000023
:106D70000000000000000000000000000000000013
:106D80000000000000000000000000000000000003
:106D900000000000000000000000000000000000F3
:106DA00000000000000000000000000000000000E3
:106DB00000000000000000000000000000000000D3
:106DC00000000000000000000000000000000000C3
:106DD00000000000000000000000000000000000B3
:106DE00000000000000000000000000000000000A3
:106DF0000000000000000000000000000000000093
:106E00000000000000000000000000000000000082
:106E100000000000000000000E09FDF7FF7F0000E9
:106E200040D0FFF7FF7F000000CFFFFFFF7F000093
:106E30004070B3F7FF7F00000ECBFCF7FF7F000030
:106E400006000000040000004000000000000000F8
:106E500040000000000000004000000000000000B2
:106E600010030000000000001003000000000000FC
:106E70000800000000000000030000000400000003
:106E8000303E1E0000000000303E1E0000000000EA
:106E9000303E1E00000000001C000000000000004A
:106EA0001C000000000000001000000000000000B6
:106EB00001000000040000000000000000000000CD
:106EC00000000000000000002CC0FCF7FF7F000065
:106ED000000000000000000000E0000000000000D2
:106EE000E0D2000000000000E0D20000000000003E
:106EF0000010000000000000000000000000000082
:106F0000010000000000000000E0000000000000A0
:106F100000A0080000000000F59808000000000034
:106F2000F5980800000000000010000000000000BC
:106F300000E000000000000005000000000000006C
:106F400000A008000000000000500E00000000003B
:106F5000F4470E0000000000F4470E00000000009F
:106F6000001000000000000000A008000000000069
:106F7000010000000000000000500E0000000000B2
:106F800000700E0000000000FC600E000000000019
:106F900008610E000000000000100000000000006A
:106FA00000400E0000000000030000000000000090
:106FB000D001000000000000D0010000000000002F
:106FC00008000000000000000400000004000000B1
:106FD000500300000000000050030000000000000B
:106FE000500300000000000030000000000000001E
:106FF0003000000000000000080000000000000059
:1070000004000000040000008003000000000000F5
:10701000800300000000000080030000000000006A
:1070200044000000000000004400000000000000D8
:107030000400000000000000070000000400000041
:10704000F048210000000000F0582100000000007E
:10705000F0582100000000001000000000000000B7
:107060009000000000000000080000000000000088
:1070700053E57464040000005003000000000000A9
:10708000500300000000000050030000000000005A
:107090003000000000000000300000000000000090
:1070A000080000000000000050E5746404000000C7
:1070B0004C3E1E0000000000000000000000000028
:1070C00080C0FBF7FF7F00001E0CFDF7FF7F000074
:1070D000CC700000000000001F0000000000000055
:1070E00020000000000000000A0000000000000076
:1070F00028C5FBF7FF7F0000000000000000000033
:10710000000000000000000000000000000000007F
:10711000E0CEFFFFFF7F00000E09FDF7FF7F0000BC
:1071200040D0FFF7FF7F0000E0CEFFFFFF7F0000B1
:107130004000A5F7FF7F00000ECBFCF7FF7F0000AB
:107140001037000000000000C8CFFFFFFF7F0000E5
:1071500000100000000000000300FCF7FF7F0000AB
:1071600062F9FFFFFF0F000080CDFFFFFF7F0000EF
:10717000030000000000000000000000000000000C
:10718000000000000000000018E1FFF7FF7F000092
:1071900004000000FF7F000001000000FF7F0000EE
:1071A00008610E0000000000035DDFF7FF7F0000B4
:1071B00080C0FBF7FF7F000003000000000000001C
:1071C0004000A5F7FF7F0000000000000300000062
:1071D0000308000000000000B31A180000000000BF
:1071E0000308000000000000B31A180000000000AF
:1071F0000100000000000000A48100000000000069
:10720000000000000000000000000000000000007E
:10721000105A0E00000000000010000000000000E6
:107220003007000000000000ECE160630000000097
:10723000A987930300000000597F2162000000002D
:1072400000000000000000008A0BCC62000000007B
:10725000770DC72D000000000000000000000000B6
:107260000000000000000000D406FDF7FF7F0000D2
:10727000A4580F2D000000000000000000000000D6
:107280000000000000000000A3D4FCF7FF7F000016
:107290000A000000000000000000000001000000E3
:1072A000000000000000000000000000FF7F000060
:1072B00001000000000000000000000001000000CC
:1072C00070CFFFFFFF7F0000000000000000000003
:1072D00001000000000000000000000001000000AC
:1072E00080C0FBF7FF7F00000000000000000000EE
:1072F0000000000000000000E0E2FFF7FF7F000058
:1073000020B1FBF7FF7F000000000000000000003C
:107310000A00000000000000000000000000000063
:1073200020E2FFF7FF7F000080C0FBF7FF7F000037
:1073300020DEFFFFFF7F00000000000000000000D3
:1073400040030000000000007F454C46020101039D
:10735000000000000000000003003E0001000000EB
:1073600000000000000000004000000000000000DD
:1073700050520E00000000000000000040003800E5
:107380000B0040001F001E00010000000400000070
:1073900000000000000000000000000000000000ED
:1073A0000000000000000000E0D20000000000002B
:1073B000E0D200000000000000100000000000000B
:1073C000010000000500000000E0000000000000D7
:1073D00000E000000000000000E0000000000000ED
:1073E000F5B8070000000000F5B807000000000035
:1073F0000010000000000000010000000400000078
:1074000000A008000000000000A00800000000002C
:1074100000A0080000000000F4A705000000000024
:10742000F4A70500000000000010000000000000AC
:107430000100000006000000804D0E00000000006A
:10744000805D0E0000000000805D0E000000000066
:107450007C03000000000000880300000000000022
:107460000010000000000000020000000600000004
:10747000904D0E0000000000905D0E000000000026
:10748000905D0E00000000002002000000000000DF
:1074900020020000000000000800000000000000C2
:1074A0000400000004000000A8020000000000002A
:1074B000A802000000000000A80200000000000078
:1074C000300000000000000030000000000000005C
:1074D000080000000000000004000000040000009C
:1074E000D802000000000000D802000000000000E8
:1074F000D80200000000000044000000000000006E
:107500004400000000000000040000000000000033
:1075100053E5746404000000A802000000000000AD
:10752000A802000000000000A80200000000000007
:1075300030000000000000003000000000000000EB
:10754000080000000000000050E574640400000022
:1075500090840D000000000090840D0000000000E9
:1075600090840D00000000001C1B000000000000C3
:107570001C1B0000000000000400000000000000D0
:1075800051E57464060000000000000000000000E7
:1075900000000000000000000000000000000000EB
:1075A00000000000000000000000000000000000DB
:1075B000100000000000000052E5746404000000A8
:1075C000804D0E0000000000805D0E0000000000F5
:1075D000805D0E000000000080020000000000003E
:1075E0008002000000000000010000000000000018
:1075F000040000002000000005000000474E550078
:10760000020000C0040000000300000000000000B1
:10761000028000C004000000010000000000000023
:10762000040000001400000003000000474E550055
:1076300027A8C28AF0BFEFEFCF69BA73F7D4582DED
:1076400082E01F7104000000100000000100000033
:10765000474E55000000000070D5FFFFFF7F00007F
:10766000E0D9FFFFFF7F00000000000000000000E5
:1076700071C2A5F7FF7F00000100000000000000BC
:10768000A0C0FBF7FF7F000010000000000000001A
:10769000A0C0FBF7FF7F000000000000000000001A
:1076A000B0D3FFFFFF7F0000A466FDF7FF7F00005F
:1076B0006064FCF7FF7F000050D3FFFFFF7F0000F6
:1076C000F0D3FFFFFF7F0000050000000000000076
:1076D00000000000000000008C6BFDF7FF7F000041
:1076E000E0E2FFF7FF7F000070B1FBF7FF7F0000D3
:1076F00090B6FBF7FF7F0000A0C0FBF7FF7F000004
:10770000A0BBFBF7FF7F0000F0DAFFF7FF7F000070
:107710000000C0A5FFFFFFFF0000A606FCEFFFFF73
:10772000020000000000000070B1FBF7FF7F0000C6
:10773000000000A6FFFFFFFF7CE3FCF7FF7F0000D7
:10774000F0DAFFF7FF7F00009035FCF7FF7F0000C5
:10775000EFB5BD85000000006835FCF7FF7F000035
:1077600060E5A4F7FF7F0000E9E7FCF7FF7F00007A
:107770001E000000000000005039FCF7FF7F0000F1
:10778000F0DAFFF7FF7F000068D4FFFFFF7F000003
:1077900064D4FFFFFF7F000006000000000000002F
:1077A0005039FCF7FF7F0000EFB5BD8500000000F9
:1077B00064D4FFFFFF7F0000D7F616020000000030
:1077C000B8C6FBF7FF7F0000F0DAFFF7FF7F00008D
:1077D00000000000000000009A4DB5F7FF7F000098
:1077E00008BCB3F7FF7F000030D5FFFFFF7F00002C
:1077F00020D5FFFFFF7F00007C6CFCF7000000003D
:1078000001000000555500000600000000000000C7
:1078100020D4FFFFFF7F00007C6CFCF7FF7F00009F
:107820000100000000000000000000000000000057
:1078300040D4FFFFFF7F0000EFB5BD8500000000D2
:10784000C0D5FFFFFF7F00009A4DB5F7FF7F000016
:1078500010BFFBF7FF7F000020D5FFFFFF7F000078
:1078600030D5FFFFFF7F000011F2FCF7FF7F000023
:10787000050000000000000060E5A4F7FF7F0000A5
:1078800001000000000000000000000000000000F7
:107890000100000000000000A0BBFBF7FF7F00001C
:1078A00060E5A4F7FF7F0000A0BBFBF7FF7F0000AF
:1078B000020000000100000010BFFBF7FF7F000086
:1078C00000000000000000000000000000000000B8
:1078D00000000000FF7F000000000000000000002A
:1078E000FFFFFFFF0000000000D4FFFFFF7F00004C
:1078F0006038FCF7FF7F0000F0DAFFF7FF7F000041
:10790000000000000000000000000000FF7F0000F9
:107910000000000000000000000000000000000067
:107920000000000000000000000000000000000057
:10793000A0C0FBF7FF7F00007CE3FCF7FF7F0000A7
:10794000A0BBFBF7FF7F0000D0BAB3F7FF7F0000BA
:107950002475820D00000000F4A8B3F7FF7F00003B
:1079600000CDFBF7FF7F0000E9E7FCF7FF7F000099
:107970005A0700000000000050D6B4F7FF7F000057
:10798000A0BBFBF7FF7F000068D6FFFFFF7F000072
:1079900064D6FFFFFF7F0000A497B3F7FF7F0000CE
:1079A00050D6B4F7FF7F00002475820D0000000060
:1079B00064D6FFFFFF7F0000D409360000000000FE
:1079C000B8C6FBF7FF7F0000A8D6FFFFFF7F0000CF
:1079D00000000000FF7F0000568BDCF7FF7F0000F7
:1079E000508ED8F7FF7F000030D7FFFFFF7F0000E9
:1079F00020D7FFFFFF7F00007CE3FCF7FF7F000044
:107A0000A0BBFBF7FF7F0000D0BAB3F7FF7F0000F9
:107A100016EA76FE0000000098B7B3F7FF7F00007B
:107A200000CDFBF7FF7F0000E9E7FCF7FF7F0000D8
:107A3000030B0000000000007CE3FCF7FF7F000068
:107A400070B1FBF7FF7F0000A080D8F7FF7F000038
:107A5000A2D79D7000000000A043D8F7FF7F000070
:107A600080C8FBF7FF7F0000E9E7FCF7FF7F00001D
:107A7000DC0800000000000028C3DAF7FF7F0000E8
:107A800070B1FBF7FF7F000068D7FFFFFF7F0000AA
:107A900064D7FFFFFF7F00002C33D8F7FF7F000083
:107AA00028C3DAF7FF7F0000A2D79D700000000016
:107AB00064D7FFFFFF7F00005E77C2010000000077
:107AC000B8C6FBF7FF7F0000A8D7FFFFFF7F0000CD
:107AD00000000000FF7F00008DB2DDF7FF7F000097
:107AE0004055D9F7FF7F000030D8FFFFFF7F00002F
:107AF00020D8FFFFFF7F00008C80630200000000A1
:107B000001000000FF7F00000600000000000000F0
:107B100000000000FF7F00001AD8DDF7FF7F0000A3
:107B200088F2D8F70000000000000000000000000C
:107B300060D8FFFFFF7F0000A2D79D70000000000B
:107B4000C0D8FFFFFF7F00008DB2DDF7FF7F000090
:107B5000E0B4FBF7FF7F000020D8FFFFFF7F0000AD
:107B600030D8FFFFFF7F000011F2FCF7FF7F00001D
:107B7000010000000000000080C8FBF7FF7F00004C
:107B800001000000000000000000000000000000F4
:107B9000010000000000000070B1FBF7FF7F000053
:107BA00080C8FBF7FF7F000070B1FBF7FF7F00008C
:107BB0000100000001000000E0B4FBF7FF7F0000BF
:107BC00000000000000000000000000000000000B5
:107BD000000000000000000000000000FF7F000027
:107BE000FFFFFFFF0000000070B1FBF7FF7F000008
:107BF0004055D9F7FF7F000070B1FBF7FF7F000011
:107C0000000000000000000000000000FF7F0000F6
:107C100000000000000000000000000055550000BA
:107C2000FFFFFFFF00000000715FFDF7FF7F000016
:107C300088F2D8F7FF7F00008002000000000000FB
:107C400070B1FBF7FF7F00001864FAF7FF7F0000B8
:107C50005097FAF7FF7F0000A0DCFFFFFF7F0000D6
:107C6000C097FAF7FF7F0000715FFDF7FF7F00000C
:107C70000100000000000000000000000000000003
:107C80004055D9F7FF7F0000B0D8EAF7FF7F00002A
:107C9000555757555555000080DCFFFFFF7F00000A
:107CA00088215A55555500000400000000000000CE
:107CB0005097FAF7FF7F0000EE8CFDF7FF7F000082
:107CC000181EFAF7FF7F000088215A55555500000D
:107CD0000000000000000000207EFAF7FF7F000097
:107CE0005097FAF7FF7F000020000000000000001E
:107CF0000400000000000000EE8CFDF7FF7F000094
:107D000002000000000000007273696F6E3A20529A
:107D1000B023FAF7FF7F0000801F0000FFFF000084
:107D200080215A5555550000010000000000000058
:107D3000B06E5B55555500000400000000000000C7
:107D4000020000000000000002000000000000002F
:107D50001000000000000000801F0000FFFF000076
:107D60000000000000000000000000000000000013
:107D70000000000000000000000000000000000003
:107D8000FF000000000000000000000000000000F4
:107D9000FF000000000000000000000000000000E4
:107DA00000000000000000000000000000000000D3
:107DB00000000000000000000000000000000000C3
:107DC00000000000000000000000000000000000B3
:107DD00000000000000000000000000000000000A3
:107DE0000000000000000000000000FF00FFFFFF97
:107DF00075696C642F5562756E74755F755669731D
:107E0000736F726C657373544C45393837395158F8
:107E100063745562756E74755F75566973696F6EBC
:107E20000600000000000000060000000000000046
:107E3000040000000000000004000000000000003A
:107E4000020000000000000002000000000000002E
:107E50001000000000000000100000000000000002
:107E6000FA00FE0000000000FB00FF000000000020
:107E7000F900FB00FD00FF00000000000000000012
:107E800000000000000000000000000000000000F2
:107E900000000000000000000000000000000000E2
:107EA000FA00FE0000000000FB00FF0000000000E0
:107EB000F900FB00FD00FF000000000000000000D2
:107EC00000000000000000000000000000000000B2
:107ED00000000000000000000000000000000000A2
:107EE0000000000000000000000000000000000092
:107EF0000000000000000000000000000000000082
:107F0000020000000000000000000000000000006F
:107F10000000000000000000E526BCF7FF7F000025
:107F20000000000000000000000000000000000051
:107F300000000000000000008017D5F7FF7F000060
:107F4000010000000000000001000000000000002F
:107F5000010000000000000017DCFFFFFF7F0000B1
:107F600000D6D4F7FF7F00005770BBF7FF7F0000FB
:107F70000000000000000000000000000000000001
:107F800090DCFFFFFF7F0000010000000000000008
:107F9000207EFAF7FF7F00000300000000000000D1
:107FA0000000000000000000F8D9EAF7FF7F0000A1
:107FB000010000000000000088215A5555550000BE
:107FC00090DCFFFFFF7F00000300000000000000C6
:107FD000207EFAF7FF7F0033F4D8EAF7FF7F000036
:107FE000000000000000000080215A55020000003F
:107FF0005097FAF7FF7F000071255A55555500003C
